{
  "_format": "hh-sol-artifact-1",
  "contractName": "L2CustomERC20",
  "sourceName": "contracts/L2CustomERC20.sol",
  "abi": [
    {
      "inputs": [
        {
          "internalType": "address",
          "name": "_l2Bridge",
          "type": "address"
        },
        {
          "internalType": "address",
          "name": "_l1Token",
          "type": "address"
        }
      ],
      "stateMutability": "nonpayable",
      "type": "constructor"
    },
    {
      "anonymous": false,
      "inputs": [
        {
          "indexed": true,
          "internalType": "address",
          "name": "owner",
          "type": "address"
        },
        {
          "indexed": true,
          "internalType": "address",
          "name": "spender",
          "type": "address"
        },
        {
          "indexed": false,
          "internalType": "uint256",
          "name": "value",
          "type": "uint256"
        }
      ],
      "name": "Approval",
      "type": "event"
    },
    {
      "anonymous": false,
      "inputs": [
        {
          "indexed": true,
          "internalType": "address",
          "name": "_account",
          "type": "address"
        },
        {
          "indexed": false,
          "internalType": "uint256",
          "name": "_amount",
          "type": "uint256"
        }
      ],
      "name": "Burn",
      "type": "event"
    },
    {
      "anonymous": false,
      "inputs": [
        {
          "indexed": true,
          "internalType": "address",
          "name": "_account",
          "type": "address"
        },
        {
          "indexed": false,
          "internalType": "uint256",
          "name": "_amount",
          "type": "uint256"
        }
      ],
      "name": "Mint",
      "type": "event"
    },
    {
      "anonymous": false,
      "inputs": [
        {
          "indexed": true,
          "internalType": "address",
          "name": "from",
          "type": "address"
        },
        {
          "indexed": true,
          "internalType": "address",
          "name": "to",
          "type": "address"
        },
        {
          "indexed": false,
          "internalType": "uint256",
          "name": "value",
          "type": "uint256"
        }
      ],
      "name": "Transfer",
      "type": "event"
    },
    {
      "inputs": [
        {
          "internalType": "address",
          "name": "owner",
          "type": "address"
        },
        {
          "internalType": "address",
          "name": "spender",
          "type": "address"
        }
      ],
      "name": "allowance",
      "outputs": [
        {
          "internalType": "uint256",
          "name": "",
          "type": "uint256"
        }
      ],
      "stateMutability": "view",
      "type": "function"
    },
    {
      "inputs": [
        {
          "internalType": "address",
          "name": "spender",
          "type": "address"
        },
        {
          "internalType": "uint256",
          "name": "amount",
          "type": "uint256"
        }
      ],
      "name": "approve",
      "outputs": [
        {
          "internalType": "bool",
          "name": "",
          "type": "bool"
        }
      ],
      "stateMutability": "nonpayable",
      "type": "function"
    },
    {
      "inputs": [
        {
          "internalType": "address",
          "name": "account",
          "type": "address"
        }
      ],
      "name": "balanceOf",
      "outputs": [
        {
          "internalType": "uint256",
          "name": "",
          "type": "uint256"
        }
      ],
      "stateMutability": "view",
      "type": "function"
    },
    {
      "inputs": [
        {
          "internalType": "address",
          "name": "_from",
          "type": "address"
        },
        {
          "internalType": "uint256",
          "name": "_amount",
          "type": "uint256"
        }
      ],
      "name": "burn",
      "outputs": [],
      "stateMutability": "nonpayable",
      "type": "function"
    },
    {
      "inputs": [],
      "name": "decimal",
      "outputs": [
        {
          "internalType": "uint8",
          "name": "",
          "type": "uint8"
        }
      ],
      "stateMutability": "view",
      "type": "function"
    },
    {
      "inputs": [],
      "name": "decimals",
      "outputs": [
        {
          "internalType": "uint8",
          "name": "",
          "type": "uint8"
        }
      ],
      "stateMutability": "view",
      "type": "function"
    },
    {
      "inputs": [
        {
          "internalType": "address",
          "name": "spender",
          "type": "address"
        },
        {
          "internalType": "uint256",
          "name": "subtractedValue",
          "type": "uint256"
        }
      ],
      "name": "decreaseAllowance",
      "outputs": [
        {
          "internalType": "bool",
          "name": "",
          "type": "bool"
        }
      ],
      "stateMutability": "nonpayable",
      "type": "function"
    },
    {
      "inputs": [
        {
          "internalType": "address",
          "name": "spender",
          "type": "address"
        },
        {
          "internalType": "uint256",
          "name": "addedValue",
          "type": "uint256"
        }
      ],
      "name": "increaseAllowance",
      "outputs": [
        {
          "internalType": "bool",
          "name": "",
          "type": "bool"
        }
      ],
      "stateMutability": "nonpayable",
      "type": "function"
    },
    {
      "inputs": [],
      "name": "l1Token",
      "outputs": [
        {
          "internalType": "address",
          "name": "",
          "type": "address"
        }
      ],
      "stateMutability": "view",
      "type": "function"
    },
    {
      "inputs": [],
      "name": "l2Bridge",
      "outputs": [
        {
          "internalType": "address",
          "name": "",
          "type": "address"
        }
      ],
      "stateMutability": "view",
      "type": "function"
    },
    {
      "inputs": [
        {
          "internalType": "address",
          "name": "_to",
          "type": "address"
        },
        {
          "internalType": "uint256",
          "name": "_amount",
          "type": "uint256"
        }
      ],
      "name": "mint",
      "outputs": [],
      "stateMutability": "nonpayable",
      "type": "function"
    },
    {
      "inputs": [],
      "name": "name",
      "outputs": [
        {
          "internalType": "string",
          "name": "",
          "type": "string"
        }
      ],
      "stateMutability": "view",
      "type": "function"
    },
    {
      "inputs": [
        {
          "internalType": "bytes4",
          "name": "_interfaceId",
          "type": "bytes4"
        }
      ],
      "name": "supportsInterface",
      "outputs": [
        {
          "internalType": "bool",
          "name": "",
          "type": "bool"
        }
      ],
      "stateMutability": "pure",
      "type": "function"
    },
    {
      "inputs": [],
      "name": "symbol",
      "outputs": [
        {
          "internalType": "string",
          "name": "",
          "type": "string"
        }
      ],
      "stateMutability": "view",
      "type": "function"
    },
    {
      "inputs": [],
      "name": "totalSupply",
      "outputs": [
        {
          "internalType": "uint256",
          "name": "",
          "type": "uint256"
        }
      ],
      "stateMutability": "view",
      "type": "function"
    },
    {
      "inputs": [
        {
          "internalType": "address",
          "name": "to",
          "type": "address"
        },
        {
          "internalType": "uint256",
          "name": "amount",
          "type": "uint256"
        }
      ],
      "name": "transfer",
      "outputs": [
        {
          "internalType": "bool",
          "name": "",
          "type": "bool"
        }
      ],
      "stateMutability": "nonpayable",
      "type": "function"
    },
    {
      "inputs": [
        {
          "internalType": "address",
          "name": "from",
          "type": "address"
        },
        {
          "internalType": "address",
          "name": "to",
          "type": "address"
        },
        {
          "internalType": "uint256",
          "name": "amount",
          "type": "uint256"
        }
      ],
      "name": "transferFrom",
      "outputs": [
        {
          "internalType": "bool",
          "name": "",
          "type": "bool"
        }
      ],
      "stateMutability": "nonpayable",
      "type": "function"
    }
  ],
  "bytecode": "0x60806040523480156200001157600080fd5b50604051620021d7380380620021d78339818101604052810190620000379190620001e3565b81816040518060400160405280600f81526020017f437573746f6d204c3220546f6b656e00000000000000000000000000000000008152506040518060400160405280600381526020017f4c32540000000000000000000000000000000000000000000000000000000000815250601282828160039081620000ba9190620004a4565b508060049081620000cc9190620004a4565b50505083600560006101000a81548173ffffffffffffffffffffffffffffffffffffffff021916908373ffffffffffffffffffffffffffffffffffffffff16021790555084600660006101000a81548173ffffffffffffffffffffffffffffffffffffffff021916908373ffffffffffffffffffffffffffffffffffffffff16021790555080600660146101000a81548160ff021916908360ff160217905550505050505050506200058b565b600080fd5b600073ffffffffffffffffffffffffffffffffffffffff82169050919050565b6000620001ab826200017e565b9050919050565b620001bd816200019e565b8114620001c957600080fd5b50565b600081519050620001dd81620001b2565b92915050565b60008060408385031215620001fd57620001fc62000179565b5b60006200020d85828601620001cc565b92505060206200022085828601620001cc565b9150509250929050565b600081519050919050565b7f4e487b7100000000000000000000000000000000000000000000000000000000600052604160045260246000fd5b7f4e487b7100000000000000000000000000000000000000000000000000000000600052602260045260246000fd5b60006002820490506001821680620002ac57607f821691505b602082108103620002c257620002c162000264565b5b50919050565b60008190508160005260206000209050919050565b60006020601f8301049050919050565b600082821b905092915050565b6000600883026200032c7fffffffffffffffffffffffffffffffffffffffffffffffffffffffffffffffff82620002ed565b620003388683620002ed565b95508019841693508086168417925050509392505050565b6000819050919050565b6000819050919050565b6000620003856200037f620003798462000350565b6200035a565b62000350565b9050919050565b6000819050919050565b620003a18362000364565b620003b9620003b0826200038c565b848454620002fa565b825550505050565b600090565b620003d0620003c1565b620003dd81848462000396565b505050565b5b818110156200040557620003f9600082620003c6565b600181019050620003e3565b5050565b601f82111562000454576200041e81620002c8565b6200042984620002dd565b8101602085101562000439578190505b620004516200044885620002dd565b830182620003e2565b50505b505050565b600082821c905092915050565b6000620004796000198460080262000459565b1980831691505092915050565b600062000494838362000466565b9150826002028217905092915050565b620004af826200022a565b67ffffffffffffffff811115620004cb57620004ca62000235565b5b620004d7825462000293565b620004e482828562000409565b600060209050601f8311600181146200051c576000841562000507578287015190505b62000513858262000486565b86555062000583565b601f1984166200052c86620002c8565b60005b8281101562000556578489015182556001820191506020850194506020810190506200052f565b8683101562000576578489015162000572601f89168262000466565b8355505b6001600288020188555050505b505050505050565b611c3c806200059b6000396000f3fe608060405234801561001057600080fd5b506004361061010b5760003560e01c806370a08231116100a2578063a457c2d711610071578063a457c2d7146102ce578063a9059cbb146102fe578063ae1f6aaf1461032e578063c01e1bd61461034c578063dd62ed3e1461036a5761010b565b806370a082311461024657806376809ce31461027657806395d89b41146102945780639dc29fac146102b25761010b565b806323b872dd116100de57806323b872dd146101ac578063313ce567146101dc57806339509351146101fa57806340c10f191461022a5761010b565b806301ffc9a71461011057806306fdde0314610140578063095ea7b31461015e57806318160ddd1461018e575b600080fd5b61012a6004803603810190610125919061123b565b61039a565b6040516101379190611283565b60405180910390f35b610148610470565b604051610155919061132e565b60405180910390f35b610178600480360381019061017391906113e4565b610502565b6040516101859190611283565b60405180910390f35b610196610525565b6040516101a39190611433565b60405180910390f35b6101c660048036038101906101c1919061144e565b61052f565b6040516101d39190611283565b60405180910390f35b6101e461055e565b6040516101f191906114bd565b60405180910390f35b610214600480360381019061020f91906113e4565b610575565b6040516102219190611283565b60405180910390f35b610244600480360381019061023f91906113e4565b6105ac565b005b610260600480360381019061025b91906114d8565b610698565b60405161026d9190611433565b60405180910390f35b61027e6106e0565b60405161028b91906114bd565b60405180910390f35b61029c6106f3565b6040516102a9919061132e565b60405180910390f35b6102cc60048036038101906102c791906113e4565b610785565b005b6102e860048036038101906102e391906113e4565b610871565b6040516102f59190611283565b60405180910390f35b610318600480360381019061031391906113e4565b6108e8565b6040516103259190611283565b60405180910390f35b61033661090b565b6040516103439190611514565b60405180910390f35b610354610931565b6040516103619190611514565b60405180910390f35b610384600480360381019061037f919061152f565b610957565b6040516103919190611433565b60405180910390f35b6000807f01ffc9a7a5cef8baa21ed3c5c0d7e23accb804b619e9333b597f47a0d84076e290506000639dc29fac60e01b6340c10f1960e01b63c01e1bd660e01b18189050817bffffffffffffffffffffffffffffffffffffffffffffffffffffffff1916847bffffffffffffffffffffffffffffffffffffffffffffffffffffffff191614806104675750807bffffffffffffffffffffffffffffffffffffffffffffffffffffffff1916847bffffffffffffffffffffffffffffffffffffffffffffffffffffffff1916145b92505050919050565b60606003805461047f9061159e565b80601f01602080910402602001604051908101604052809291908181526020018280546104ab9061159e565b80156104f85780601f106104cd576101008083540402835291602001916104f8565b820191906000526020600020905b8154815290600101906020018083116104db57829003601f168201915b5050505050905090565b60008061050d6109de565b905061051a8185856109e6565b600191505092915050565b6000600254905090565b60008061053a6109de565b9050610547858285610baf565b610552858585610c3b565b60019150509392505050565b6000600660149054906101000a900460ff16905090565b6000806105806109de565b90506105a18185856105928589610957565b61059c91906115fe565b6109e6565b600191505092915050565b600660009054906101000a900473ffffffffffffffffffffffffffffffffffffffff1673ffffffffffffffffffffffffffffffffffffffff163373ffffffffffffffffffffffffffffffffffffffff161461063c576040517f08c379a00000000000000000000000000000000000000000000000000000000081526004016106339061167e565b60405180910390fd5b6106468282610eb1565b8173ffffffffffffffffffffffffffffffffffffffff167f0f6798a560793a54c3bcfe86a93cde1e73087d944c0ea20544137d41213968858260405161068c9190611433565b60405180910390a25050565b60008060008373ffffffffffffffffffffffffffffffffffffffff1673ffffffffffffffffffffffffffffffffffffffff168152602001908152602001600020549050919050565b600660149054906101000a900460ff1681565b6060600480546107029061159e565b80601f016020809104026020016040519081016040528092919081815260200182805461072e9061159e565b801561077b5780601f106107505761010080835404028352916020019161077b565b820191906000526020600020905b81548152906001019060200180831161075e57829003601f168201915b5050505050905090565b600660009054906101000a900473ffffffffffffffffffffffffffffffffffffffff1673ffffffffffffffffffffffffffffffffffffffff163373ffffffffffffffffffffffffffffffffffffffff1614610815576040517f08c379a000000000000000000000000000000000000000000000000000000000815260040161080c9061167e565b60405180910390fd5b61081f8282611007565b8173ffffffffffffffffffffffffffffffffffffffff167fcc16f5dbb4873280815c1ee09dbd06736cffcc184412cf7a71a0fdb75d397ca5826040516108659190611433565b60405180910390a25050565b60008061087c6109de565b9050600061088a8286610957565b9050838110156108cf576040517f08c379a00000000000000000000000000000000000000000000000000000000081526004016108c690611710565b60405180910390fd5b6108dc82868684036109e6565b60019250505092915050565b6000806108f36109de565b9050610900818585610c3b565b600191505092915050565b600660009054906101000a900473ffffffffffffffffffffffffffffffffffffffff1681565b600560009054906101000a900473ffffffffffffffffffffffffffffffffffffffff1681565b6000600160008473ffffffffffffffffffffffffffffffffffffffff1673ffffffffffffffffffffffffffffffffffffffff16815260200190815260200160002060008373ffffffffffffffffffffffffffffffffffffffff1673ffffffffffffffffffffffffffffffffffffffff16815260200190815260200160002054905092915050565b600033905090565b600073ffffffffffffffffffffffffffffffffffffffff168373ffffffffffffffffffffffffffffffffffffffff1603610a55576040517f08c379a0000000000000000000000000000000000000000000000000000000008152600401610a4c906117a2565b60405180910390fd5b600073ffffffffffffffffffffffffffffffffffffffff168273ffffffffffffffffffffffffffffffffffffffff1603610ac4576040517f08c379a0000000000000000000000000000000000000000000000000000000008152600401610abb90611834565b60405180910390fd5b80600160008573ffffffffffffffffffffffffffffffffffffffff1673ffffffffffffffffffffffffffffffffffffffff16815260200190815260200160002060008473ffffffffffffffffffffffffffffffffffffffff1673ffffffffffffffffffffffffffffffffffffffff168152602001908152602001600020819055508173ffffffffffffffffffffffffffffffffffffffff168373ffffffffffffffffffffffffffffffffffffffff167f8c5be1e5ebec7d5bd14f71427d1e84f3dd0314c0f7b2291e5b200ac8c7c3b92583604051610ba29190611433565b60405180910390a3505050565b6000610bbb8484610957565b90507fffffffffffffffffffffffffffffffffffffffffffffffffffffffffffffffff8114610c355781811015610c27576040517f08c379a0000000000000000000000000000000000000000000000000000000008152600401610c1e906118a0565b60405180910390fd5b610c3484848484036109e6565b5b50505050565b600073ffffffffffffffffffffffffffffffffffffffff168373ffffffffffffffffffffffffffffffffffffffff1603610caa576040517f08c379a0000000000000000000000000000000000000000000000000000000008152600401610ca190611932565b60405180910390fd5b600073ffffffffffffffffffffffffffffffffffffffff168273ffffffffffffffffffffffffffffffffffffffff1603610d19576040517f08c379a0000000000000000000000000000000000000000000000000000000008152600401610d10906119c4565b60405180910390fd5b610d248383836111d4565b60008060008573ffffffffffffffffffffffffffffffffffffffff1673ffffffffffffffffffffffffffffffffffffffff16815260200190815260200160002054905081811015610daa576040517f08c379a0000000000000000000000000000000000000000000000000000000008152600401610da190611a56565b60405180910390fd5b8181036000808673ffffffffffffffffffffffffffffffffffffffff1673ffffffffffffffffffffffffffffffffffffffff16815260200190815260200160002081905550816000808573ffffffffffffffffffffffffffffffffffffffff1673ffffffffffffffffffffffffffffffffffffffff168152602001908152602001600020600082825401925050819055508273ffffffffffffffffffffffffffffffffffffffff168473ffffffffffffffffffffffffffffffffffffffff167fddf252ad1be2c89b69c2b068fc378daa952ba7f163c4a11628f55a4df523b3ef84604051610e989190611433565b60405180910390a3610eab8484846111d9565b50505050565b600073ffffffffffffffffffffffffffffffffffffffff168273ffffffffffffffffffffffffffffffffffffffff1603610f20576040517f08c379a0000000000000000000000000000000000000000000000000000000008152600401610f1790611ac2565b60405180910390fd5b610f2c600083836111d4565b8060026000828254610f3e91906115fe565b92505081905550806000808473ffffffffffffffffffffffffffffffffffffffff1673ffffffffffffffffffffffffffffffffffffffff168152602001908152602001600020600082825401925050819055508173ffffffffffffffffffffffffffffffffffffffff16600073ffffffffffffffffffffffffffffffffffffffff167fddf252ad1be2c89b69c2b068fc378daa952ba7f163c4a11628f55a4df523b3ef83604051610fef9190611433565b60405180910390a3611003600083836111d9565b5050565b600073ffffffffffffffffffffffffffffffffffffffff168273ffffffffffffffffffffffffffffffffffffffff1603611076576040517f08c379a000000000000000000000000000000000000000000000000000000000815260040161106d90611b54565b60405180910390fd5b611082826000836111d4565b60008060008473ffffffffffffffffffffffffffffffffffffffff1673ffffffffffffffffffffffffffffffffffffffff16815260200190815260200160002054905081811015611108576040517f08c379a00000000000000000000000000000000000000000000000000000000081526004016110ff90611be6565b60405180910390fd5b8181036000808573ffffffffffffffffffffffffffffffffffffffff1673ffffffffffffffffffffffffffffffffffffffff1681526020019081526020016000208190555081600260008282540392505081905550600073ffffffffffffffffffffffffffffffffffffffff168373ffffffffffffffffffffffffffffffffffffffff167fddf252ad1be2c89b69c2b068fc378daa952ba7f163c4a11628f55a4df523b3ef846040516111bb9190611433565b60405180910390a36111cf836000846111d9565b505050565b505050565b505050565b600080fd5b60007fffffffff0000000000000000000000000000000000000000000000000000000082169050919050565b611218816111e3565b811461122357600080fd5b50565b6000813590506112358161120f565b92915050565b600060208284031215611251576112506111de565b5b600061125f84828501611226565b91505092915050565b60008115159050919050565b61127d81611268565b82525050565b60006020820190506112986000830184611274565b92915050565b600081519050919050565b600082825260208201905092915050565b60005b838110156112d85780820151818401526020810190506112bd565b60008484015250505050565b6000601f19601f8301169050919050565b60006113008261129e565b61130a81856112a9565b935061131a8185602086016112ba565b611323816112e4565b840191505092915050565b6000602082019050818103600083015261134881846112f5565b905092915050565b600073ffffffffffffffffffffffffffffffffffffffff82169050919050565b600061137b82611350565b9050919050565b61138b81611370565b811461139657600080fd5b50565b6000813590506113a881611382565b92915050565b6000819050919050565b6113c1816113ae565b81146113cc57600080fd5b50565b6000813590506113de816113b8565b92915050565b600080604083850312156113fb576113fa6111de565b5b600061140985828601611399565b925050602061141a858286016113cf565b9150509250929050565b61142d816113ae565b82525050565b60006020820190506114486000830184611424565b92915050565b600080600060608486031215611467576114666111de565b5b600061147586828701611399565b935050602061148686828701611399565b9250506040611497868287016113cf565b9150509250925092565b600060ff82169050919050565b6114b7816114a1565b82525050565b60006020820190506114d260008301846114ae565b92915050565b6000602082840312156114ee576114ed6111de565b5b60006114fc84828501611399565b91505092915050565b61150e81611370565b82525050565b60006020820190506115296000830184611505565b92915050565b60008060408385031215611546576115456111de565b5b600061155485828601611399565b925050602061156585828601611399565b9150509250929050565b7f4e487b7100000000000000000000000000000000000000000000000000000000600052602260045260246000fd5b600060028204905060018216806115b657607f821691505b6020821081036115c9576115c861156f565b5b50919050565b7f4e487b7100000000000000000000000000000000000000000000000000000000600052601160045260246000fd5b6000611609826113ae565b9150611614836113ae565b925082820190508082111561162c5761162b6115cf565b5b92915050565b7f4f6e6c79204c32204272696467652063616e206d696e7420616e64206275726e600082015250565b60006116686020836112a9565b915061167382611632565b602082019050919050565b600060208201905081810360008301526116978161165b565b9050919050565b7f45524332303a2064656372656173656420616c6c6f77616e63652062656c6f7760008201527f207a65726f000000000000000000000000000000000000000000000000000000602082015250565b60006116fa6025836112a9565b91506117058261169e565b604082019050919050565b60006020820190508181036000830152611729816116ed565b9050919050565b7f45524332303a20617070726f76652066726f6d20746865207a65726f2061646460008201527f7265737300000000000000000000000000000000000000000000000000000000602082015250565b600061178c6024836112a9565b915061179782611730565b604082019050919050565b600060208201905081810360008301526117bb8161177f565b9050919050565b7f45524332303a20617070726f766520746f20746865207a65726f20616464726560008201527f7373000000000000000000000000000000000000000000000000000000000000602082015250565b600061181e6022836112a9565b9150611829826117c2565b604082019050919050565b6000602082019050818103600083015261184d81611811565b9050919050565b7f45524332303a20696e73756666696369656e7420616c6c6f77616e6365000000600082015250565b600061188a601d836112a9565b915061189582611854565b602082019050919050565b600060208201905081810360008301526118b98161187d565b9050919050565b7f45524332303a207472616e736665722066726f6d20746865207a65726f20616460008201527f6472657373000000000000000000000000000000000000000000000000000000602082015250565b600061191c6025836112a9565b9150611927826118c0565b604082019050919050565b6000602082019050818103600083015261194b8161190f565b9050919050565b7f45524332303a207472616e7366657220746f20746865207a65726f206164647260008201527f6573730000000000000000000000000000000000000000000000000000000000602082015250565b60006119ae6023836112a9565b91506119b982611952565b604082019050919050565b600060208201905081810360008301526119dd816119a1565b9050919050565b7f45524332303a207472616e7366657220616d6f756e742065786365656473206260008201527f616c616e63650000000000000000000000000000000000000000000000000000602082015250565b6000611a406026836112a9565b9150611a4b826119e4565b604082019050919050565b60006020820190508181036000830152611a6f81611a33565b9050919050565b7f45524332303a206d696e7420746f20746865207a65726f206164647265737300600082015250565b6000611aac601f836112a9565b9150611ab782611a76565b602082019050919050565b60006020820190508181036000830152611adb81611a9f565b9050919050565b7f45524332303a206275726e2066726f6d20746865207a65726f2061646472657360008201527f7300000000000000000000000000000000000000000000000000000000000000602082015250565b6000611b3e6021836112a9565b9150611b4982611ae2565b604082019050919050565b60006020820190508181036000830152611b6d81611b31565b9050919050565b7f45524332303a206275726e20616d6f756e7420657863656564732062616c616e60008201527f6365000000000000000000000000000000000000000000000000000000000000602082015250565b6000611bd06022836112a9565b9150611bdb82611b74565b604082019050919050565b60006020820190508181036000830152611bff81611bc3565b905091905056fea2646970667358221220868770115bf19b6f6b2241db89c1fec98d0269c381092f0e69508606c4c616dc64736f6c63430008120033",
  "linkReferences": {},
  "deployedLinkReferences": {}
}